{
  "contractName": "SmartContractDemo",
  "abi": [
    {
      "constant": true,
      "inputs": [],
      "name": "client",
      "outputs": [
        {
          "name": "",
          "type": "address"
        }
      ],
      "payable": false,
      "stateMutability": "view",
      "type": "function"
    },
    {
      "constant": true,
      "inputs": [],
      "name": "tasker",
      "outputs": [
        {
          "name": "",
          "type": "address"
        }
      ],
      "payable": false,
      "stateMutability": "view",
      "type": "function"
    },
    {
      "constant": true,
      "inputs": [],
      "name": "payAmount",
      "outputs": [
        {
          "name": "",
          "type": "uint256"
        }
      ],
      "payable": false,
      "stateMutability": "view",
      "type": "function"
    },
    {
      "constant": true,
      "inputs": [],
      "name": "deployer",
      "outputs": [
        {
          "name": "",
          "type": "address"
        }
      ],
      "payable": false,
      "stateMutability": "view",
      "type": "function"
    },
    {
      "inputs": [
        {
          "name": "_client",
          "type": "address"
        },
        {
          "name": "_tasker",
          "type": "address"
        }
      ],
      "payable": false,
      "stateMutability": "nonpayable",
      "type": "constructor"
    },
    {
      "constant": false,
      "inputs": [],
      "name": "sendPaytoDeployer",
      "outputs": [],
      "payable": true,
      "stateMutability": "payable",
      "type": "function"
    },
    {
      "constant": false,
      "inputs": [],
      "name": "sendPayAmountToTasker",
      "outputs": [],
      "payable": true,
      "stateMutability": "payable",
      "type": "function"
    }
  ],
  "bytecode": "0x608060405234801561001057600080fd5b506040516040806104c28339810180604052604081101561003057600080fd5b810190808051906020019092919080519060200190929190505050336000806101000a81548173ffffffffffffffffffffffffffffffffffffffff021916908373ffffffffffffffffffffffffffffffffffffffff16021790555081600160006101000a81548173ffffffffffffffffffffffffffffffffffffffff021916908373ffffffffffffffffffffffffffffffffffffffff16021790555080600260006101000a81548173ffffffffffffffffffffffffffffffffffffffff021916908373ffffffffffffffffffffffffffffffffffffffff1602179055506000600381905550505061039c806101266000396000f3fe608060405260043610610072576000357c010000000000000000000000000000000000000000000000000000000090048063109e94cf1461007757806382faef25146100ce578063a0e7999b14610125578063c87055441461012f578063d5f394881461015a578063e239aa04146101b1575b600080fd5b34801561008357600080fd5b5061008c6101bb565b604051808273ffffffffffffffffffffffffffffffffffffffff1673ffffffffffffffffffffffffffffffffffffffff16815260200191505060405180910390f35b3480156100da57600080fd5b506100e36101e1565b604051808273ffffffffffffffffffffffffffffffffffffffff1673ffffffffffffffffffffffffffffffffffffffff16815260200191505060405180910390f35b61012d610207565b005b34801561013b57600080fd5b50610144610275565b6040518082815260200191505060405180910390f35b34801561016657600080fd5b5061016f61027b565b604051808273ffffffffffffffffffffffffffffffffffffffff1673ffffffffffffffffffffffffffffffffffffffff16815260200191505060405180910390f35b6101b96102a0565b005b600160009054906101000a900473ffffffffffffffffffffffffffffffffffffffff1681565b600260009054906101000a900473ffffffffffffffffffffffffffffffffffffffff1681565b3373ffffffffffffffffffffffffffffffffffffffff16600160009054906101000a900473ffffffffffffffffffffffffffffffffffffffff1673ffffffffffffffffffffffffffffffffffffffff1614151561026357600080fd5b34600360008282540192505081905550565b60035481565b6000809054906101000a900473ffffffffffffffffffffffffffffffffffffffff1681565b3373ffffffffffffffffffffffffffffffffffffffff166000809054906101000a900473ffffffffffffffffffffffffffffffffffffffff1673ffffffffffffffffffffffffffffffffffffffff161415156102fb57600080fd5b600260009054906101000a900473ffffffffffffffffffffffffffffffffffffffff1673ffffffffffffffffffffffffffffffffffffffff166108fc6003549081150290604051600060405180830381858888f19350505050158015610365573d6000803e3d6000fd5b50600060038190555056fea165627a7a7230582048e9298b87ccd1f090aa8e76fe7457509af89c277a50f2550b8c98af3f2653410029",
  "source": "pragma solidity ^0.5.0;\n\ncontract SmartContractDemo {\n    address payable public deployer;\n\n    address payable public client;\n    address payable public tasker;\n\n    uint256 public payAmount;\n\n    constructor (address payable _client, address payable _tasker) public {\n        deployer = msg.sender;\n\n        client = _client;\n        tasker = _tasker;\n\n        payAmount = 0;\n    }\n\n    function sendPaytoDeployer() public payable {\n        require(client == msg.sender);\n        payAmount += msg.value;\n    }\n\n    function sendPayAmountToTasker() public payable {\n        require(deployer == msg.sender);\n\n        // transfer pay amount to tasker\n        tasker.transfer(payAmount);\n\n        // nullify pay amount manually\n        payAmount = 0;\n    }\n}",
  "sourcePath": "/Users/Stormwind/SmartContract/contracts/SmartContractDemo.sol",
  "compiler": {
    "name": "solc",
    "version": "0.5.1+commit.c8a2cb62.Emscripten.clang"
  },
  "schemaVersion": "3.0.0-beta.2",
  "updatedAt": "2018-12-06T08:05:23.442Z",
  "devdoc": {
    "methods": {}
  },
  "userdoc": {
    "methods": {}
  }
}